:020000020000FC
:0C0000000C9430000C94E3000C94F5000C
:10005C000C940C012FEF2DBF21E22EBF20EF20932B
:10006C000A0122E0209369002DB321602DBB28E00A
:10007C00209369002DB322602DBB20E220936900F0
:10008C002DB324602DBB2FEF2093070121B922271C
:10009C002093080122B908E35AD06BD088D008E32A
:1000AC0056D067D07BD008E352D063D008E34FD052
:1000BC0060D008E04CD05DD001E049D05AD006E0C9
:1000CC0046D057D00EE043D054D02FEF27B922277B
:1000DC0028B92FEF20BB222721BB20E12DB920E02E
:1000EC0020939A00222720939B0021E020939100DB
:1000FC0021E22093900020E024BD22E025BD21E0E8
:10010C0020936E0078948827EE27DD2766277727C3
:10011C00C0E0D2E00027099308835BD121E0209353
:10012C00090221E020930A0220E020930B0220E038
:10013C0020930D02209301022093020220930302CC
:10014C002FEF28B924E620930C020C94650200933F
:10015C00080124D0169A22D0169820D00895009326
:10016C000801179A1BD0169A19D0169817D0179801
:10017C0008950F9300270093070100930801159A27
:10018C000DD0169A0BD000910601169807FDF8CFEA
:10019C0015980FEF009307010F9108958F939F937C
:1001AC009FE08CE90197F1F79F918F910895F6DF0D
:1001BC00F5DFF4DFF3DFF2DF08952F932FB72F93E2
:1001CC0020910B02213019F420E02093080220E04A
:1001DC0020930B02FED02F912FBF2F9118952F93A8
:1001EC002FB72F9321E020930B0220910002233094
:1001FC0039F0EFD00C9402012F912FBF2F9118954D
:10020C0020E020930002E5D00C9402012F933F9341
:10021C008F939F93AF93BF932FB72F9320910B0284
:10022C00213031F12091030009F12091000221309D
:10023C00F9F48091010290910202019680930102DF
:10024C0090930202A0910402B09105021196A09322
:10025C000402B0930502AA342CE4B20781F4AA2755
:10026C00BB27A0930402B09305023DC00C94A101DE
:10027C0020E020939A000C94E6010C94E601209166
:10028C000C022436E1F0223341F0293179F0813A25
:10029C0027E09207C9F00C946A0182342FE0920790
:1002AC0074F020E020939A000C946A01813A27E0C4
:1002BC0092072CF020E020939A000C946A012FEF07
:1002CC0020939A000C946A0184382EE19207A9F6C7
:1002DC008827992780930102909302020C9496012F
:1002EC0078D00C946A0120910902203009F00CC0DE
:1002FC0020910A02243021F0239520930A02F0CF9A
:10030C0021E020930A02ECCF20910A02213021F047
:10031C002A9520930A02E4CF24E020930A02E0CF2E
:10032C00703019F07A9555D04BC0603021F06A9539
:10033C007BE34FD045C0209108022030D9F120E05A
:10034C0020939A0023E02093000201E000DF11DFEC
:10035C0004E405DF0EDF0FE602DF0BDF0EE6FFDE47
:10036C0008DF05E6FCDE05DF00ECF1DE02DF02E56E
:10037C00F6DEFFDE05E6F3DEFCDE0DE6F0DEF9DE92
:10038C000FE6EDDEF6DE06E7EADEF3DE05E6E7DE97
:10039C00F0DE00E2E4DEEDDE06E6E1DEEADE0FE6AC
:1003AC00DEDEE7DE0FE6DBDEE4DE04E6D8DEE1DEF1
:1003BC000C94E60121E0209308027BE30AD000C0F4
:1003CC002F912FBFBF91AF919F918F913F912F9103
:1003DC0018956F937F932F9301E0B9DECADE222725
:1003EC0000C06A3074F4205D022FB9DEC2DE605D9D
:1003FC00062FB5DEBEDE2AE3022FB1DEBADE2227DF
:10040C0003C023956A50EDCF7A3054F4205D022F4F
:10041C00A6DEAFDE705D072FA2DEABDE3AE003C0D6
:10042C0023957A50F1CF303029F000E298DEA1DE2E
:10043C003A95F9CF20910A02213031F0223049F05F
:10044C00233061F0243079F02DE2022F88DE91DE2A
:10045C000FC020E6022F83DE8CDE0AC02CE7022FB1
:10046C007EDE87DE05C02FE2022F79DE82DE00C041
:10047C0000EC6DDE7EDE3FE00C944402303029F05F
:10048C0000E26DDE76DE3A95F9CF20910B02213039
:10049C0021F0203049F00C9461020FE460DE69DE3B
:1004AC002FEF21BB0C94610203E459DE62DE20E0E5
:1004BC0021BB0C9461022F917F916F91089520E0E4
:1004CC0020930002882730E0309308020C946E02CF
:1004DC0020910B022130E1F35FEE10E020E020933D
:1004EC00070200C0143021F050930B012FEF0CC009
:1004FC0020910702203021F020E020930602E8CF63
:10050C0021E020930602E4CF2A95F1F7209109010E
:10051C002F702F3061F041E0002700C0043039F01B
:10052C00322F342341F00395440F0C949402550F51
:10053C0013950C9478021330E9F00330B9F0209144
:10054C0000022330A9F0402F440F400F410F439578
:10055C0021E02093070220910D02213029F021E0A7
:10056C00209308020C94BF030C94E0030C944B03EF
:10057C000C946E02209100022330D1F321E02093E1
:10058C000702003041F0013061F0023061F00330BD
:10059C00D1F00C94DE0320910002203021F50C9454
:1005AC0016030C94F902209106022030E1F020E0B1
:1005BC002093060221E02093070230910002313093
:1005CC00A1F00C94F90220910602203061F020E099
:1005DC002093060221E02093070230910002313073
:1005EC0071F00C94F9020C947E027E3124F07E5151
:1005FC0063950C94DE033EE1730F0C94DE037E31A5
:10060C0054F4603029F06A953EE1730F0C94DE03CC
:10061C0070E00C94DE037E510C94DE030C94DE032C
:10062C0001E095DDA6DD03E59ADDA3DD05E697DDAA
:10063C00A0DD04E794DD9DDD00E291DD9ADD00E5AF
:10064C008EDD97DD0FE68BDD94DD07E788DD91DD30
:10065C0005E685DD8EDD02E782DD8BDD00E27FDDE8
:10066C0088DD01E37CDD85DD0FE279DD82DD02E3EF
:10067C0076DD7FDD0FE273DD7CDD03E370DD79DD9C
:10068C0021E020930D020C94F902209106022130F6
:10069C0029F621E020930702103091F11130D9F0A6
:1006AC00123089F443E220910D022130B1F02091F7
:1006BC000002213001F1203091F0223081F0233002
:1006CC0021F00C94DE030C94DE0320E02093000256
:1006DC0080DE0C946E020C94B4030C94E00320E0C6
:1006EC002093000220E020930802882744276627E5
:1006FC0077270C94DE0352E0509300020C947E0298
:10070C0020910002233031F1213021F14AE2209175
:10071C0000023091060250910D025130A1F03030A0
:10072C00D9F031E03093070230E03093060221E03B
:10073C002093000220910902203039F020E0209310
:10074C0009020C946E020C94E00321E02093090240
:10075C000C946E020C946E020C94DE032091000239
:10076C002330C1F340E020910D02213019F10C949B
:10077C00BF032227209106022130D1F420E02093E0
:10078C0006028395853044F7833011F0843059F09C
:10079C007A3034F4620F2AE0729F702D740F08C007
:1007AC0023957A50F5CF2AE0629F602D2227F0CF57
:1007BC0010DE8ECE413041F0423089F04330D1F022
:1007CC00433219F10C946E02442720E020930D0261
:1007DC0024E620930C022FEF28B90C94DE03442757
:1007EC0020E020930D0222E320930C022FE028B985
:1007FC000C94DE03442720E020930D0229E1209382
:10080C000C0223E028B90C94DE03442720E020934B
:0C081C000D0220E0209300020C94DE038B
:00000001FF
