:020000020000FC
:040000000C9430002C
:10005C000C94A9002FEF2DBF21E22EBF20EF20938F
:10006C000A012FEF2093070121B9222720930801C1
:10007C0022B908E332D043D060D008E32ED03FD071
:10008C0053D008E32AD03BD008E327D038D008E07F
:10009C0024D035D001E021D032D006E01ED02FD0B4
:1000AC000EE01BD02CD020E024BD22E025BD21E0A9
:1000BC0020936E00789460E070E07CD0C5E0D2E0D4
:1000CC00002709930883C0E0D2E000270993088336
:1000DC008827EE27DD270C940C010093080124D00F
:1000EC00169A22D0169820D0089500930801179ADA
:1000FC001BD0169A19D0169817D0179808950F93ED
:10010C0000270093070100930801159A0DD0169A49
:10011C000BD000910601169807FDF8CF15980FEF3C
:10012C00009307010F9108958F939F939FE08CE9A3
:10013C000197F1F79F918F910895F6DFF5DFF4DFCA
:10014C00F3DFF2DF08952F933F938F939F9380916A
:10015C000102909102020196809301029093020297
:10016C0084382EE19207E1F48827992780930102C5
:10017C009093020220910002213009F016C07030D9
:10018C0019F07A9517D011C0603021F06A957BE395
:10019C0011D00BC0803009F008C07CE30BD005C037
:1001AC00809301029093020200C09F918F913F9126
:1001BC002F9118956F937F932F9301E08EDF9FDF24
:1001CC00222700C06A3074F4205D022F8EDF97DF87
:1001DC00605D062F8ADF93DF2AE3022F86DF8FDF35
:1001EC00222703C023956A50EDCF7A3064F4205D4A
:1001FC00022F7BDF84DF705D072F77DF80DF2F918D
:10020C007F916F91089523957A50EFCF20E0209342
:10021C00000288270C9412015FEE10E020E020937E
:10022C00040200C0143021F050930B012FEF0CC0CE
:10023C0020910402203021F020E020930302ECCF27
:10024C0021E020930302E8CF2A95F1F720910901D0
:10025C002F702F3061F041E0002700C0043039F0DE
:10026C00322F342341F00395440F0C943401550F75
:10027C0013950C941801E01741F4D11731F40C9438
:10028C0047014CE362D00C944B01E02FD12F13307B
:10029C0061F0033071F0402F440F400F410F439534
:1002AC0021E0209304020C94830141E4400F0C9450
:1002BC0083011030B9F01130F1F01230D1F42091EB
:1002CC000002203021F0213041F00C9412018827DB
:1002DC004427662777270C94A20152E05093000222
:1002EC000C9412012091000221E0209300020C9446
:1002FC0012010C94120140E000C02227209103024D
:10030C002130D1F420E02093030283958530BCF496
:10031C00833011F0843059F07A3034F4620F2AE0D3
:10032C00729F702D740F08C023957A50F5CF2AE078
:10033C00629F602D2227F0CF3DDF4CE300C0FDDE35
:10034C004A954030E1F70C941201F7DEEDDE4A9548
:06035C004030D9F70895BE
:00000001FF
