:020000020000FC
:040000000C9430002C
:10005C000C949C002FEF2DBF21E22EBF20EF20939C
:10006C000A012FEF2093070121B9222720930801C1
:10007C0022B908E325D036D053D008E321D032D0B2
:10008C0046D008E31DD02ED008E31AD02BD008E0C0
:10009C0017D028D001E014D025D006E011D022D002
:1000AC000EE00ED01FD020E024BD22E025BD21E0C3
:1000BC0020936E007894662721E0209304028CC074
:1000CC000093080124D0169A22D0169820D00895B7
:1000DC0000930801179A1BD0169A19D0169817D0AE
:1000EC00179808950F9300270093070100930801B8
:1000FC00159A0DD0169A0BD000910601169807FD93
:10010C00F8CF15980FEF009307010F9108958F9377
:10011C009F939FE08CE90197F1F79F918F91089540
:10012C00F6DFF5DFF4DFF3DFF2DF08952F933F9373
:10013C008F939F938091020290910302019680937A
:10014C0002029093030284382EE1920799F441E065
:10015C0040930402809100029091010201968093D9
:10016C0000029093010288279927809302029093B2
:10017C00030205C0809302029093030200C09F917A
:10018C008F913F912F91189501E09ADFABDF2227D9
:10019C00AA27BB27BB24F0E34AE050E0841795075D
:1001AC0028F00A97119684179507C0F78F9323951B
:1001BC00A517B50729F08A2F9B2FAA27BB27EECFAF
:1001CC008F918F0F082F84DF8DDF213021F0B394B6
:1001DC00B216B1F700C008955FEE10E01430E1F3F1
:1001EC0050930B012FEF2A95F1F7209109012F70F5
:1001FC002F3059F041E00027043039F0322F3423EE
:10020C0041F00395440F0C940201550F13950C9477
:10021C00F400133049F0033059F0402F440F400FD5
:10022C00410F4F5C0C942C0141E4400F0C942C01B9
:10023C00103021F0113039F00C94300101E040DF26
:10024C0051DF0C94300140E0405D00C0042F40DFD2
:10025C0049DF44E665DF4A954030E1F70C94F20043
:00000001FF
