:020000020000FC
:0C0000000C9430000C94BE000C94C9005D
:10005C000C94E0002FEF2DBF21E22EBF20EF209358
:10006C000A0122E0209369002DB321602DBB28E00A
:10007C00209369002DB322602DBB2FEF2093070135
:10008C0021B922272093080122B908E33BD04CD098
:10009C0069D008E337D048D05CD008E333D044D0E3
:1000AC0008E330D041D008E02DD03ED001E02AD07A
:1000BC003BD006E027D038D00EE024D035D020E05D
:1000CC0024BD22E025BD21E020936E00789460E0F1
:1000DC0070E01DD1C7E0D2E0002709930883C0E08F
:1000EC00D2E00027099308838827EE27DD2721E03B
:1000FC0020930A0221E020930B0220E020930C02B3
:10010C000C94FF010093080124D0169A22D0169863
:10011C0020D0089500930801179A1BD0169A19D075
:10012C00169817D0179808950F930027009307017E
:10013C0000930801159A0DD0169A0BD00091060168
:10014C00169807FDF8CF15980FEF009307010F9144
:10015C0008958F939F939FE08CE90197F1F79F91FE
:10016C008F910895F6DFF5DFF4DFF3DFF2DF08950A
:10017C002F932FB72F9320E020930C02C8D02F91F0
:10018C002FBF2F9118952F932FB72F9321E02093EA
:10019C000C0220910002233039F0B9D00C94D60017
:1001AC002F912FBF2F91189520E020930002AFD0F4
:1001BC000C94D6002F933F938F939F93AF93BF9341
:1001CC002FB72F9320910C02213009F120910002BE
:1001DC002130E9F480910102909102020196809302
:1001EC00010290930202A0910302B09104021196B5
:1001FC00A0930302B0930402AA342CE4B20749F48E
:10020C00AA27BB27A0930302B093040211C00C943D
:10021C00840184382EE19207D1F78827992780939F
:10022C000102909302020C943B0171D00C940F01CB
:10023C0020910A02203009F00CC020910B022430CE
:10024C0021F0239520930B02F0CF21E020930B0299
:10025C00ECCF20910B02213021F02A9520930B0238
:10026C00E4CF24E020930B02E0CF703019F07A95A4
:10027C004ED044C0603021F06A957BE348D03EC03C
:10028C00209109022030B9F123E02093000201E013
:10029C0039DF4ADF04E43EDF47DF0FE63BDF44DFB4
:1002AC000EE638DF41DF05E635DF3EDF00EC2ADF06
:1002BC003BDF02E52FDF38DF05E62CDF35DF0DE60F
:1002CC0029DF32DF0FE626DF2FDF06E723DF2CDF07
:1002DC0005E620DF29DF00E21DDF26DF06E61ADF58
:1002EC0023DF0FE617DF20DF0FE614DF1DDF04E648
:1002FC0011DF1ADF03C07BE30AD000C02F912FBFA0
:10030C00BF91AF919F918F913F912F9118956F93C2
:10031C007F932F9301E0F6DE07DF222700C06A30BF
:10032C0074F4205D022FF6DEFFDE605D062FF2DE38
:10033C00FBDE2AE3022FEEDEF7DE222703C0239535
:10034C006A50EDCF7A3054F4205D022FE3DEECDE00
:10035C00705D072FDFDEE8DE3AE003C023957A50AC
:10036C00F1CF303029F000E2D5DEDEDE3A95F9CF60
:10037C0020910B02213031F0223049F0233061F012
:10038C00243079F02DE2022FC5DECEDE0FC020E640
:10039C00022FC0DEC9DE0AC02CE7022FBBDEC4DE92
:1003AC0005C02FE2022FB6DEBFDE00C000ECAADED5
:1003BC00BBDE3FE00C94E201303029F000E2AADE13
:1003CC00B3DE3A95F9CF20910C02213021F0203088
:1003DC0039F00C94FB010FE49DDEA6DE0C94FB01BE
:1003EC0003E498DEA1DE0C94FB012F917F916F91B9
:1003FC00089520E020930002882730E03093090212
:10040C000C94080220910C022130E1F35FEE10E015
:10041C0020E02093060200C0143021F050930B0111
:10042C002FEF0CC020910602203021F020E0209309
:10043C000502E8CF21E020930502E4CF2A95F1F7DD
:10044C00209109012F702F3061F041E0002700C08E
:10045C00043039F0322F342341F00395440F0C94BF
:10046C002E02550F13950C941202E01741F4D1177C
:10047C0031F40C9441024CE3BED00C944502E02FB5
:10048C00D12F133081F0033061F0402F440F400F17
:10049C00410F439521E020930602209309020C940E
:1004AC00D9020C94930221E020930602003041F013
:1004BC00013049F0023051F0033071F00C94F80225
:1004CC0041E40C94D90242E40C94D902309100021C
:1004DC00313041F00C94080230910002313061F05F
:1004EC000C9408027E3124F07E5163950C94F80232
:1004FC003EE1730F0C94F8027E3154F4603029F015
:10050C006A953EE1730F0C94F80270E00C94F802BB
:10051C007E510C94F8020C94F802209105022130C3
:10052C00D1F721E0209306021030E1F01130C9F12F
:10053C001230A9F520910002213079F0203021F001
:10054C00223011F00C94F80220E02093000288274E
:10055C004427662777270C94F80252E05093000248
:10056C000C94F80220910002309105023030B9F061
:10057C0031E03093060230E03093050221E0209305
:10058C00000220910A02203029F020E020930A0278
:10059C000C94080221E020930A020C9408020C949B
:1005AC00080240E000C02227209105022130D1F43E
:1005BC0020E02093050283958530BCF4833011F044
:1005CC00843059F07A3034F4620F2AE0729F702D27
:1005DC00740F08C023957A50F5CF2AE0629F602DE6
:1005EC002227F0CF94DE4CE300C0BCDD4A954030AE
:1005FC00E1F70C940802B6DDACDD4A954030D9F732
:02060C0008954F
:00000001FF
