:020000020000FC
:0C0000000C9430000C94E3000C94EE0013
:10005C000C9405012FEF2DBF21E22EBF20EF209332
:10006C000A0122E0209369002DB321602DBB28E00A
:10007C00209369002DB322602DBB20E220936900F0
:10008C002DB324602DBB2FEF2093070121B922271C
:10009C002093080122B908E35AD06BD088D008E32A
:1000AC0056D067D07BD008E352D063D008E34FD052
:1000BC0060D008E04CD05DD001E049D05AD006E0C9
:1000CC0046D057D00EE043D054D02FEF27B922277B
:1000DC0028B92FEF20BB222721BB20E12DB920E02E
:1000EC0020939A00222720939B0021E020939100DB
:1000FC0021E22093900020E024BD22E025BD21E0E8
:10010C0020936E0078948827EE27DD2766277727C3
:10011C00C0E0D2E000270993088357D121E0209357
:10012C00090221E020930A0220E020930B0220E038
:10013C0020930D02209301022093020220930302CC
:10014C002FEF28B924E620930C020C946102009343
:10015C00080124D0169A22D0169820D00895009326
:10016C000801179A1BD0169A19D0169817D0179801
:10017C0008950F9300270093070100930801159A27
:10018C000DD0169A0BD000910601169807FDF8CFEA
:10019C0015980FEF009307010F9108958F939F937C
:1001AC009FE08CE90197F1F79F918F910895F6DF0D
:1001BC00F5DFF4DFF3DFF2DF08952F932FB72F93E2
:1001CC0020E020930B0201D12F912FBF2F91189576
:1001DC002F932FB72F9321E020930B022091000235
:1001EC00233039F0F2D00C94FB002F912FBF2F91BC
:1001FC00189520E020930002E8D00C94FB002F937C
:10020C003F938F939F93AF93BF932FB72F932091CF
:10021C000B02213049F12091030021F120910002C1
:10022C00213011F580910102909102020196809388
:10023C0001029093020220910300A1F0A09104020C
:10024C00B09105021196A0930402B0930502AA3452
:10025C002CE4B20781F4AA27BB27A0930402B09325
:10026C0005023DC00C949D0120E020939A000C9453
:10027C00E2010C94E20120910C022436E1F02233CD
:10028C0041F0293179F0813A27E09207C9F00C94BA
:10029C00660182342FE0920774F020E020939A00DC
:1002AC000C946601813A27E092072CF020E0209311
:1002BC009A000C9466012FEF20939A000C9466011F
:1002CC0084382EE19207A9F688279927809301029A
:1002DC00909302020C94920178D00C9466012091B8
:1002EC000902203009F00CC020910A02243021F0C0
:1002FC00239520930A02F0CF21E020930A02ECCF41
:10030C0020910A02213021F02A9520930A02E4CF91
:10031C0024E020930A02E0CF703019F07A9555D082
:10032C004BC0603021F06A957BE34FD045C02091E3
:10033C0008022030D9F120E020939A0023E020938A
:10034C00000201E004DF15DF04E409DF12DF0FE631
:10035C0006DF0FDF0EE603DF0CDF05E600DF09DF4B
:10036C0000ECF5DE06DF02E5FADE03DF05E6F7DE7C
:10037C0000DF0DE6F4DEFDDE0FE6F1DEFADE06E769
:10038C00EEDEF7DE05E6EBDEF4DE00E2E8DEF1DEC3
:10039C0006E6E5DEEEDE0FE6E2DEEBDE0FE6DFDEA6
:1003AC00E8DE04E6DCDEE5DE0C94E20121E02093DD
:1003BC0008027BE30AD000C02F912FBFBF91AF91F1
:1003CC009F918F913F912F9118956F937F932F93BE
:1003DC0001E0BDDECEDE222700C06A3074F4205D61
:1003EC00022FBDDEC6DE605D062FB9DEC2DE2AE35B
:1003FC00022FB5DEBEDE222703C023956A50EDCF57
:10040C007A3054F4205D022FAADEB3DE705D072F24
:10041C00A6DEAFDE3AE003C023957A50F1CF303040
:10042C0029F000E29CDEA5DE3A95F9CF20910A0274
:10043C00213031F0223049F0233061F0243079F052
:10044C002DE2022F8CDE95DE0FC020E6022F87DE18
:10045C0090DE0AC02CE7022F82DE8BDE05C02FE275
:10046C00022F7DDE86DE00C000EC71DE82DE3FE016
:10047C000C944002303029F000E271DE7ADE3A95BD
:10048C00F9CF20910B02213021F0203049F00C944F
:10049C005D020FE464DE6DDE2FEF21BB0C945D0278
:1004AC0003E45DDE66DE20E021BB0C945D022F913F
:1004BC007F916F91089520E020930002882730E00F
:1004CC00309308020C946A0220910B022130E1F364
:1004DC005FEE10E020E02093070200C0143021F002
:1004EC0050930B012FEF0CC020910702203021F00C
:1004FC0020E020930602E8CF21E020930602E4CF0F
:10050C002A95F1F7209109012F702F3061F041E00D
:10051C00002700C0043039F0322F342341F003950A
:10052C00440F0C949002550F13950C9474021330D5
:10053C00E9F00330B9F0209100022330A9F0402FEC
:10054C00440F400F410F439521E020930702209167
:10055C000D02213029F021E0209308020C94B903FC
:10056C000C94DA030C9447030C946A022091000259
:10057C002330D1F321E020930702003041F0013009
:10058C0061F0023061F00330D1F00C94D80320916B
:10059C000002203021F50C9412030C94F5022091EA
:1005AC0006022030E1F020E02093060221E02093A7
:1005BC000702309100023130A1F00C94F502209129
:1005CC000602203061F020E02093060221E0209307
:1005DC00070230910002313071F00C94F5020C944A
:1005EC007A027E3124F07E5163950C94D8033EE15F
:1005FC00730F0C94D8037E3154F4603029F06A9553
:10060C003EE1730F0C94D80370E00C94D8037E5128
:10061C000C94D8030C94D80301E099DDAADD03E512
:10062C009EDDA7DD05E69BDDA4DD04E798DDA1DDFD
:10063C0000E295DD9EDD00E592DD9BDD0FE68FDDB2
:10064C0098DD07E78CDD95DD05E689DD92DD02E7B7
:10065C0086DD8FDD00E283DD8CDD01E380DD89DD6D
:10066C000FE27DDD86DD02E37ADD83DD0FE277DDEF
:10067C0080DD03E374DD7DDD21E020930D020C941D
:10068C00F50220910602213029F621E02093070281
:10069C00103091F11130D9F0123089F443E22091ED
:1006AC000D022130B1F020910002213001F12030F7
:1006BC0091F0223081F0233021F00C94D8030C946B
:1006CC00D80320E02093000280DE0C946A020C9484
:1006DC00AE030C94DA0320E02093000220E0209378
:1006EC00080288274427662777270C94D80352E002
:1006FC00509300020C947A0220910002233021F1D5
:10070C004AE2209100023091060250910D025130C4
:10071C00A1F03030D9F031E03093070230E0309363
:10072C00060221E02093000220910902203039F0CA
:10073C0020E0209309020C946A020C94DA0321E065
:10074C00209309020C946A020C946A020C94D8034C
:10075C00209100022330C1F340E020910D022130A2
:10076C0019F10C94B9032227209106022130D1F4FF
:10077C0020E0209306028395853044F7833011F0F6
:10078C00843059F07A3034F4620F2AE0729F702D65
:10079C00740F08C023957A50F5CF2AE0629F602D24
:1007AC002227F0CF12DE90CE413041F0423089F05A
:1007BC004330D1F0433219F10C946A02442720E003
:1007CC0020930D0224E620930C022FEF28B90C94F1
:1007DC00D803442720E020930D0222E320930C023F
:1007EC002FE028B90C94D803442720E020930D0265
:1007FC0029E120930C0223E028B90C94D803442758
:10080C0020E020930D0220E0209300020C94D803EA
:00000001FF
