:020000020000FC
:100000000C9430000C94CC000C94D7000C94EE00AF
:10005C000C94F5002FEF2DBF21E22EBF20EF209343
:10006C000A0122E0209369002DB321602DBB28E00A
:10007C00209369002DB322602DBB20E220936900F0
:10008C002DB324602DBB2FEF2093070121B922271C
:10009C002093080122B908E343D054D071D008E36F
:1000AC003FD050D064D008E33BD04CD008E338D0DC
:1000BC0049D008E035D046D001E032D043D006E03C
:1000CC002FD040D00EE02CD03DD02FEF27B92227D7
:1000DC0028B92FEF20BB222721BB20E024BD22E032
:1000EC0025BD21E020936E00789460E070E024D16F
:1000FC00C7E0D2E0002709930883C0E0D2E00027D4
:10010C00099308838827EE27DD2721E020930A0234
:10011C0021E020930B0220E020930C020C94180297
:10012C000093080124D0169A22D0169820D0089556
:10013C0000930801179A1BD0169A19D0169817D04D
:10014C00179808950F930027009307010093080157
:10015C00159A0DD0169A0BD000910601169807FD32
:10016C00F8CF15980FEF009307010F9108958F9317
:10017C009F939FE08CE90197F1F79F918F910895E0
:10018C00F6DFF5DFF4DFF3DFF2DF08952F932FB7FF
:10019C002F9320E020930C02CFD02F912FBF2F91C3
:1001AC0018952F932FB72F9321E020930C022091B9
:1001BC000002233039F0C0D00C94E4002F912FBFF3
:1001CC002F91189520E020930002B6D00C94E400F7
:1001DC002F932FB72F932F912FBF2F9118952F93CC
:1001EC003F938F939F93AF93BF932FB72F932091F0
:1001FC000C02213009F1209100022130E9F48091A8
:10020C0001029091020201968093010290930202E6
:10021C00A0910302B09104021196A0930302B09333
:10022C000402AA342CE4B20749F4AA27BB27A093F2
:10023C000302B093040211C00C94990184382EE18E
:10024C009207D1F788279927809301029093020295
:10025C000C94500171D00C94240120910A0220308E
:10026C0009F00CC020910B02243021F0239520932F
:10027C000B02F0CF21E020930B02ECCF20910B026C
:10028C00213021F02A9520930B02E4CF24E0209317
:10029C000B02E0CF703019F07A954ED044C060302C
:1002AC0021F06A957BE348D03EC0209109022030B2
:1002BC00B9F123E02093000201E032DF43DF04E4D4
:1002CC0037DF40DF0FE634DF3DDF0EE631DF3ADFAC
:1002DC0005E62EDF37DF00EC23DF34DF02E528DF15
:1002EC0031DF05E625DF2EDF0DE622DF2BDF0FE603
:1002FC001FDF28DF06E71CDF25DF05E619DF22DF1D
:10030C0000E216DF1FDF06E613DF1CDF0FE610DF4F
:10031C0019DF0FE60DDF16DF04E60ADF13DF03C07B
:10032C007BE30AD000C02F912FBFBF91AF919F915B
:10033C008F913F912F9118956F937F932F9301E09D
:10034C00EFDE00DF222700C06A3074F4205D022F3C
:10035C00EFDEF8DE605D062FEBDEF4DE2AE3022F23
:10036C00E7DEF0DE222703C023956A50EDCF7A300A
:10037C0054F4205D022FDCDEE5DE705D072FD8DE45
:10038C00E1DE3AE003C023957A50F1CF303029F00A
:10039C0000E2CEDED7DE3A95F9CF20910B02213068
:1003AC0031F0223049F0233061F0243079F02DE225
:1003BC00022FBEDEC7DE0FC020E6022FB9DEC2DE82
:1003CC000AC02CE7022FB4DEBDDE05C02FE2022FDF
:1003DC00AFDEB8DE00C000ECA3DEB4DE3FE00C9470
:1003EC00F701303029F000E2A3DEACDE3A95F9CF0C
:1003FC0020910C02213021F0203049F00C94140291
:10040C000FE496DE9FDE2FEF21BB0C94140203E465
:10041C008FDE98DE20E021BB0C9414022F917F918B
:10042C006F91089520E020930002882730E03093EC
:10043C0009020C94210220910C022130E1F35FEEB1
:10044C0010E020E02093060200C0143021F05093FD
:10045C000B012FEF0CC020910602203021F020E080
:10046C0020930502E8CF21E020930502E4CF2A95E2
:10047C00F1F7209109012F702F3061F041E0002736
:10048C0000C0043039F0322F342341F00395440F6F
:10049C000C944702550F13950C942B02E01741F462
:1004AC00D11731F40C945A024CE3BED00C945E027A
:1004BC00E02FD12F133081F0033061F0402F440F27
:1004CC00400F410F439521E020930602209309022F
:1004DC000C94F2020C94AC0221E020930602003042
:1004EC0041F0013049F0023051F0033071F00C94BE
:1004FC00110341E40C94F20242E40C94F2023091A8
:10050C000002313041F00C94210230910002313064
:10051C0061F00C9421027E3124F07E5163950C9491
:10052C0011033EE1730F0C9411037E3154F46030CF
:10053C0029F06A953EE1730F0C94110370E00C9452
:10054C0011037E510C9411030C941103209105029C
:10055C002130D1F721E0209306021030E1F0113068
:10056C00C9F11230A9F520910002213079F0203028
:10057C0021F0223011F00C94110320E020930002A2
:10058C0088274427662777270C94110352E0509351
:10059C0000020C94110320910002309105023030BE
:1005AC00B9F031E03093060230E03093050221E0DF
:1005BC002093000220910A02203029F020E02093A1
:1005CC000A020C94210221E020930A020C942102CD
:1005DC000C94210240E000C022272091050221301A
:1005EC00D1F420E02093050283958530BCF4833050
:1005FC0011F0843059F07A3034F4620F2AE0729F93
:10060C00702D740F08C023957A50F5CF2AE0629FA5
:10061C00602D2227F0CF90DE4CE300C0B1DD4A956F
:10062C004030E1F70C942102ABDDA1DD4A9540305E
:04063C00D9F708954D
:00000001FF
