:020000020000FC
:0C0000000C9430000C94E3000C940101FF
:10005C000C9415012FEF2DBF21E22EBF20EF209322
:10006C000A0122E0209369002DB321602DBB28E00A
:10007C00209369002DB322602DBB20E220936900F0
:10008C002DB324602DBB2FEF2093070121B922271C
:10009C002093080122B908E35AD06BD088D008E32A
:1000AC0056D067D07BD008E352D063D008E34FD052
:1000BC0060D008E04CD05DD001E049D05AD006E0C9
:1000CC0046D057D00EE043D054D02FEF27B922277B
:1000DC0028B92FEF20BB222721BB20E12DB920E02E
:1000EC0020939A00222720939B0021E020939100DB
:1000FC0021E22093900020E024BD22E025BD21E0E8
:10010C0020936E0078948827EE27DD2766277727C3
:10011C00C0E0D2E000270993088364D121E020934A
:10012C00090221E020930A0220E020930B0220E038
:10013C0020930D02209301022093020220930302CC
:10014C002FEF28B924E620930C020C946E02009336
:10015C00080124D0169A22D0169820D00895009326
:10016C000801179A1BD0169A19D0169817D0179801
:10017C0008950F9300270093070100930801159A27
:10018C000DD0169A0BD000910601169807FDF8CFEA
:10019C0015980FEF009307010F9108958F939F937C
:1001AC009FE08CE90197F1F79F918F910895F6DF0D
:1001BC00F5DFF4DFF3DFF2DF08952F932FB72F93E2
:1001CC0020910002233051F00DD10C94ED0020E071
:1001DC0020930B022F912FBF2F91189520910B027A
:1001EC002130A9F720E020930002882720E02093FB
:1001FC0008020C94ED002F932FB72F9321E020933E
:10020C000B0220910002233039F0ECD00C940E013B
:10021C002F912FBF2F911895E5D00C940E012F9391
:10022C003F938F939F93AF93BF932FB72F932091AF
:10023C000B02213031F12091030009F120910002D1
:10024C002130F9F480910102909102020196809381
:10025C00010290930202A0910402B0910502119642
:10026C00A0930402B0930502AA342CE4B20781F4E3
:10027C00AA27BB27A0930402B09305023DC00C949F
:10028C00AA0120E020939A000C94EF010C94EF014A
:10029C0020910C022436E1F0223341F0293179F01F
:1002AC00813A27E09207C9F00C94730182342FE055
:1002BC00920774F020E020939A000C947301813A19
:1002CC0027E092072CF020E020939A000C94730105
:1002DC002FEF20939A000C94730184382EE192072F
:1002EC00A9F68827992780930102909302020C9417
:1002FC009F0178D00C94730120910902203009F0F1
:10030C000CC020910A02243021F0239520930A027C
:10031C00F0CF21E020930A02ECCF20910A02213089
:10032C0021F02A9520930A02E4CF24E020930A02BC
:10033C00E0CF703019F07A9555D04BC0603021F079
:10034C006A957BE34FD045C0209108022030D9F14B
:10035C0020E020939A0023E02093000201E0F7DED6
:10036C0008DF04E4FCDE05DF0FE6F9DE02DF0EE653
:10037C00F6DEFFDE05E6F3DEFCDE00ECE8DEF9DEA1
:10038C0002E5EDDEF6DE05E6EADEF3DE0DE6E7DE9F
:10039C00F0DE0FE6E4DEEDDE06E7E1DEEADE05E6A2
:1003AC00DEDEE7DE00E2DBDEE4DE06E6D8DEE1DE02
:1003BC000FE6D5DEDEDE0FE6D2DEDBDE04E6CFDED8
:1003CC00D8DE0C94EF0121E0209308027BE30AD0E5
:1003DC0000C02F912FBFBF91AF919F918F913F91F3
:1003EC002F9118956F937F932F9301E0B0DEC1DEB0
:1003FC00222700C06A3074F4205D022FB0DEB9DE13
:10040C00605D062FACDEB5DE2AE3022FA8DEB1DE7E
:10041C00222703C023956A50EDCF7A3054F4205D27
:10042C00022F9DDEA6DE705D072F99DEA2DE3AE07C
:10043C0003C023957A50F1CF303029F000E28FDEE3
:10044C0098DE3A95F9CF20910A02213031F0223012
:10045C0049F0233061F0243079F02DE2022F7FDE59
:10046C0088DE0FC020E6022F7ADE83DE0AC02CE77E
:10047C00022F75DE7EDE05C02FE2022F70DE79DEE4
:10048C0000C000EC64DE75DE3FE00C944D023030B1
:10049C0029F000E264DE6DDE3A95F9CF20910B0273
:1004AC00213021F0203049F00C946A020FE457DE21
:1004BC0060DE2FEF21BB0C946A0203E450DE59DEA0
:1004CC0020E021BB0C946A022F917F916F910895CB
:1004DC0020E020930002882730E0309308020C942F
:1004EC00770220910B022130E1F35FEE10E020E067
:1004FC002093070200C0143021F050930B012FEF12
:10050C000CC020910702203021F020E0209306023D
:10051C00E8CF21E020930602E4CF2A95F1F7209151
:10052C0009012F702F3061F041E0002700C004302A
:10053C0039F0322F342341F00395440F0C949D0273
:10054C00550F13950C9481021330E9F00330B9F078
:10055C00209100022330A9F0402F440F400F410F8F
:10056C00439521E02093070220910D02213029F0C0
:10057C0021E0209308020C94C9030C94EA030C9418
:10058C0054030C947702209100022330D1F321E024
:10059C0020930702003041F0013061F0023061F02D
:1005AC000330D1F00C94E80320910002203021F5A7
:1005BC000C941F030C940203209106022030E1F0EE
:1005CC0020E02093060221E02093070230910002E4
:1005DC003130A1F00C94020320910602203061F01E
:1005EC0020E02093060221E02093070230910002C4
:1005FC00313071F00C9402030C9487027E3124F09C
:10060C007E5163950C94E8033EE1730F0C94E80360
:10061C007E3154F4603029F06A953EE1730F0C94EE
:10062C00E80370E00C94E8037E510C94E8030C94FE
:10063C00E80301E08CDD9DDD03E591DD9ADD05E647
:10064C008EDD97DD04E78BDD94DD00E288DD91DD46
:10065C0000E585DD8EDD0FE682DD8BDD07E77FDDD6
:10066C0088DD05E67CDD85DD02E779DD82DD00E2F3
:10067C0076DD7FDD01E373DD7CDD0FE270DD79DD9E
:10068C0002E36DDD76DD0FE26ADD73DD03E367DD2A
:10069C0070DD21E020930D020C94020320910602E0
:1006AC00213029F621E020930702103099F1113006
:1006BC00E1F0123089F443E220910D022130B9F0BF
:1006CC0020910002213009F1203099F0223089F07C
:1006DC00233021F00C94E8030C94E80320E02093E1
:1006EC00000288277FDE0C9477020C94BE030C94D6
:1006FC00EA0320E02093000220E0209308028827E0
:10070C004427662777270C94E80352E050930002A5
:10071C000C94870220910002233031F1213021F119
:10072C004AE2209100023091060250910D025130A4
:10073C00A1F03030D9F031E03093070230E0309343
:10074C00060221E02093000220910902203039F0AA
:10075C0020E0209309020C9477020C94EA0321E028
:10076C00209309020C9477020C9477020C94E80302
:10077C00209100022330C1F340E020910D02213082
:10078C0019F10C94C9032227209106022130D1F4CF
:10079C0020E0209306028395853044F7833011F0D6
:1007AC00843059F07A3034F4620F2AE0729F702D45
:1007BC00740F08C023957A50F5CF2AE0629F602D04
:1007CC002227F0CF0FDE8DCE413041F0423089F040
:1007DC004330D1F0433219F10C947702442720E0D6
:1007EC0020930D0224E620930C022FEF28B90C94D1
:1007FC00E803442720E020930D0222E320930C020F
:10080C002FE028B90C94E803442720E020930D0234
:10081C0029E120930C0223E028B90C94E803442727
:10082C0020E020930D0220E0209300020C94E803BA
:00000001FF
