:020000020000FC
:0C0000000C9430000C94E8000C94F30009
:10005C000C940A012FEF2DBF21E22EBF20EF20932D
:10006C000A0122E0209369002DB321602DBB28E00A
:10007C00209369002DB322602DBB20E220936900F0
:10008C002DB324602DBB2FEF2093070121B922271C
:10009C002093080122B908E35FD070D08DD008E31B
:1000AC005BD06CD080D008E357D068D008E354D034
:1000BC0065D008E051D062D001E04ED05FD006E0B0
:1000CC004BD05CD00EE048D059D02FEF27B9222767
:1000DC0028B92FEF20BB222721BB20E12DB920E02E
:1000EC0020939A00222720939B0021E020939100DB
:1000FC0021E22093900020E024BD22E025BD21E0E8
:10010C0020936E00789460E070E053D1C8E0D2E0A8
:10011C00002709930883C0E0D2E0002709930883E5
:10012C008827EE27DD2721E020930B0221E0209386
:10013C000C0220E020930D0220E020930F0220936C
:10014C00010220930202209303022FEF28B924E628
:10015C0020930E020C9455020093080124D0169A99
:10016C0022D0169820D0089500930801179A1BD01E
:10017C00169A19D0169817D0179808950F93002730
:10018C000093070100930801159A0DD0169A0BD015
:10019C0000910601169807FDF8CF15980FEF009304
:1001AC0007010F9108958F939F939FE08CE901971E
:1001BC00F1F79F918F910895F6DFF5DFF4DFF3DF10
:1001CC00F2DF08952F932FB72F9320E020930D0289
:1001DC00F0D02F912FBF2F9118952F932FB72F93CE
:1001EC0021E020930D0220910002233039F0E1D060
:1001FC000C9400012F912FBF2F91189520E0209384
:10020C000002D7D00C9400012F933F938F939F93B0
:10021C00AF93BF932FB72F9320910D02213009F18B
:10022C00209100022130E9F48091010290910202A8
:10023C0001968093010290930202A0910402B09166
:10024C0005021196A0930402B0930502AA342CE483
:10025C00B20749F4AA27BB27A0930402B093050266
:10026C0036C00C94D60120910E022436E1F02233D4
:10027C0041F0293179F0813A27E09207C9F00C94CA
:10028C005E0182342FE0920774F020E020939A00F4
:10029C000C945E01813A27E092072CF020E0209329
:1002AC009A000C945E012FEF20939A000C945E013F
:1002BC0084382EE19207A9F68827992780930102AA
:1002CC00909302020C948A0174D00C945E012091DC
:1002DC000B02203009F00CC020910C02243021F0CC
:1002EC00239520930C02F0CF21E020930C02ECCF4D
:1002FC0020910C02213021F02A9520930C02E4CF9E
:10030C0024E020930C02E0CF703019F07A9551D094
:10031C0047C0603021F06A957BE34BD041C02091FF
:10032C000A022030D1F120E020939A0023E02093A0
:10033C00000201E011DF22DF04E416DF1FDF0FE60D
:10034C0013DF1CDF0EE610DF19DF05E60DDF16DF0D
:10035C0000EC02DF13DF02E507DF10DF05E604DF48
:10036C000DDF0DE601DF0ADF0FE6FEDE07DF06E735
:10037C00FBDE04DF05E6F8DE01DF00E2F5DEFEDE83
:10038C0006E6F2DEFBDE0FE6EFDEF8DE0FE6ECDE75
:10039C00F5DE04E6E9DEF2DE03C07BE30AD000C042
:1003AC002F912FBFBF91AF919F918F913F912F9123
:1003BC0018956F937F932F9301E0CEDEDFDE22271B
:1003CC0000C06A3074F4205D022FCEDED7DE605D93
:1003DC00062FCADED3DE2AE3022FC6DECFDE2227AB
:1003EC0003C023956A50EDCF7A3054F4205D022F70
:1003FC00BBDEC4DE705D072FB7DEC0DE3AE003C0A3
:10040C0023957A50F1CF303029F000E2ADDEB6DE24
:10041C003A95F9CF20910C02213031F0223049F07D
:10042C00233061F0243079F02DE2022F9DDEA6DE20
:10043C000FC020E6022F98DEA1DE0AC02CE7022FA7
:10044C0093DE9CDE05C02FE2022F8EDE97DE00C00D
:10045C0000EC82DE93DE3FE00C943402303029F065
:10046C0000E282DE8BDE3A95F9CF20910D0221302D
:10047C0021F0203049F00C9451020FE475DE7EDE41
:10048C002FEF21BB0C94510203E46EDE77DE20E0EB
:10049C0021BB0C9451022F917F916F91089520E014
:1004AC0020930002882730E030930A020C945E02FD
:1004BC0020910D022130E1F35FEE10E020E020935B
:1004CC00070200C0143021F050930B012FEF0CC029
:1004DC0020910702203021F020E020930602E8CF83
:1004EC0021E020930602E4CF2A95F1F7209109012F
:1004FC002F702F3061F041E0002700C0043039F03C
:10050C00322F342341F00395440F0C948402550F81
:10051C0013950C946802E02FD12F1330B1F00330F7
:10052C0091F0402F440F400F410F439521E0209351
:10053C00070220930A0220910F02213011F00C9433
:10054C0078030C9499030C941D0321E0209307026B
:10055C00003041F0013061F0023069F0033089F075
:10056C000C94970320910002203061F10C947803D5
:10057C0042E40C94780330910002313041F00C9439
:10058C005E0230910002313061F00C945E027E31DB
:10059C0024F07E5163950C9497033EE1730F0C94F9
:1005AC0097037E3154F4603029F06A953EE1730F65
:1005BC000C94970370E00C9497037E510C94970362
:1005CC000C94970301E0C8DDD9DD03E5CDDDD6DD64
:1005DC0005E6CADDD3DD04E7C7DDD0DD00E2C4DD0E
:1005EC00CDDD00E5C1DDCADD0FE6BEDDC7DD07E709
:1005FC00BBDDC4DD05E6B8DDC1DD02E7B5DDBEDD82
:10060C0000E2B2DDBBDD01E3AFDDB8DD0FE2ACDD56
:10061C00B5DD02E3A9DDB2DD0FE2A6DDAFDD03E35C
:10062C00A3DDACDD21E020930F020C945E0220913F
:10063C000602213029F621E020930702103039F10F
:10064C00113089F0123009F543E220910F0221306C
:10065C0061F020910002213099F0203041F02230DD
:10066C0031F00C9497030C9471030C94990320E0D3
:10067C002093000288274427662777270C9497033A
:10068C0052E0509300020C9497030C9497034AE2A7
:10069C00209100023091060250910F025130A1F0CE
:1006AC00303099F331E03093070230E0309306029A
:1006BC0021E02093000220910B02203039F020E041
:1006CC0020930B020C945E020C94990321E020936E
:1006DC000B020C945E0240E020910F02213019F1C4
:1006EC000C9478032227209106022130D1F420E0CB
:1006FC00209306028395853044F6833011F08430C4
:10070C0059F07A3034F4620F2AE0729F702D740F16
:10071C0008C023957A50F5CF2AE0629F602D2227DE
:10072C00F0CF47DEC5CE413041F0423089F0433046
:10073C00D1F0433219F10C945E02442720E020934F
:10074C000F0224E620930E022FEF28B90C94970386
:10075C00442720E020930F0222E320930E022FE087
:10076C0028B90C949703442720E020930F0229E129
:10077C0020930E0223E028B90C949703442720E021
:0E078C0020930F0220E0209300020C949703AC
:00000001FF
