:020000020000FC
:040000000C9430002C
:10005C000C94A3002FEF2DBF21E22EBF20EF209395
:10006C000A012FEF2093070121B9222720930801C1
:10007C0022B908E32CD03DD05AD008E328D039D08F
:10008C004DD008E324D035D008E321D032D008E09D
:10009C001ED02FD001E01BD02CD006E018D029D0D8
:1000AC000EE015D026D020E024BD22E025BD21E0B5
:1000BC0020936E00789466277727C5E0D2E000275E
:1000CC00099308838827EE27DD270C94F60000930C
:1000DC00080124D0169A22D0169820D008950093A7
:1000EC000801179A1BD0169A19D0169817D0179882
:1000FC0008950F9300270093070100930801159AA8
:10010C000DD0169A0BD000910601169807FDF8CF6A
:10011C0015980FEF009307010F9108958F939F93FC
:10012C009FE08CE90197F1F79F918F910895F6DF8D
:10013C00F5DFF4DFF3DFF2DF08952F933F938F9316
:10014C009F93809102029091030201968093020288
:10015C009093030284382EE1920781F4809100027F
:10016C0090910102019680930002909301028827DE
:10017C009927809302029093030205C08093020298
:10018C009093030200C09F918F913F912F911895EE
:10019C0001E09DDFAEDF2227AA27BB27BB24F0E3BB
:1001AC004AE050E08417950728F00A9711968417B7
:1001BC009507C0F78F932395A517B50729F08A2FBC
:1001CC009B2FAA27BB27EECF8F918F0F082F87DF8E
:1001DC0090DF213021F0B394B216B1F700C008952E
:1001EC005FEE10E01430E1F350930B012FEF00C0E1
:1001FC002A95F1F7209109012F702F3059F041E029
:10020C000027043039F0322F342341F00395440F8A
:10021C000C940701550F13950C94F800F03031F441
:10022C00E01721F4D11711F44CE33DD0E02FD12F7E
:10023C00133049F0033059F0402F440F400F410F59
:10024C004F5C0C94420141E4400F0C94420110307D
:10025C0071F0113071F0882701E039DF4ADF442753
:10026C00C5E0D2E00027099308830C94F6000C94A7
:10027C00F60040E0405D00C084307CF4823009F030
:10028C0004C03AE3032F2BDF34DF042F28DF31DFE8
:10029C0041504093050283954CE349DF4A95403029
:1002AC00E1F70C94F60043DF39DF4A954030D9F77B
:0202BC000895A3
:00000001FF
