:020000020000FC
:040000000C9430002C
:10005C000C94AF002FEF2DBF21E22EBF20EF209389
:10006C000A012FEF2093070121B9222720930801C1
:10007C0022B908E338D049D066D008E334D045D053
:10008C0059D008E330D041D008E32DD03ED008E061
:10009C002AD03BD001E027D038D006E024D035D090
:1000AC000EE021D032D020E024BD22E025BD21E09D
:1000BC0020936E00789460E070E0F4D0C7E0D2E05A
:1000CC00002709930883C0E0D2E000270993088336
:1000DC008827EE27DD2721E020930A0221E02093D8
:1000EC000B020C94AC010093080124D0169A22D078
:1000FC00169820D0089500930801179A1BD0169AD1
:10010C0019D0169817D0179808950F9300270093BD
:10011C00070100930801159A0DD0169A0BD0009187
:10012C000601169807FDF8CF15980FEF00930701FD
:10013C000F9108958F939F939FE08CE90197F1F7AE
:10014C009F918F910895F6DFF5DFF4DFF3DFF2DF97
:10015C0008952F933F938F939F93AF93BF932FB794
:10016C002F93209100022130E9F4809101029091AB
:10017C00020201968093010290930202A091030265
:10018C00B09104021196A0930302B0930402AA3416
:10019C002CE4B20749F4AA27BB27A0930302B0931F
:1001AC00040211C00C944F0184382EE19207D1F750
:1001BC008827992780930102909302020C940601E0
:1001CC0071D00C94DA0020910A02203009F00CC096
:1001DC0020910B02243021F0239520930B02F0CFB9
:1001EC0021E020930B02ECCF20910B02213021F067
:1001FC002A9520930B02E4CF24E020930B02E0CF4E
:10020C00703019F07A954ED044C0603021F06A9568
:10021C007BE348D03EC0209109022030B9F123E0A5
:10022C002093000201E05FDF70DF04E464DF6DDF28
:10023C000FE661DF6ADF0EE65EDF67DF05E65BDF98
:10024C0064DF00EC50DF61DF02E555DF5EDF05E6C1
:10025C0052DF5BDF0DE64FDF58DF0FE64CDF55DF7B
:10026C0006E749DF52DF05E646DF4FDF00E243DFFA
:10027C004CDF06E640DF49DF0FE63DDF46DF0FE6E9
:10028C003ADF43DF04E637DF40DF03C07BE30AD00D
:10029C0000C02F912FBFBF91AF919F918F913F9134
:1002AC002F9118956F937F932F9301E01CDF2DDF17
:1002BC00222700C06A3074F4205D022F1CDF25DF7A
:1002CC00605D062F18DF21DF2AE3022F14DF1DDF0C
:1002DC00222703C023956A50EDCF7A305CF4205D61
:1002EC00022F09DF12DF705D072F05DF0EDF20E222
:1002FC003AE003C023957A50F0CF303029F0022F2A
:10030C00FADE03DF3A95F9CF20910B02213031F060
:10031C00223049F0233061F0243079F02DE2022FA5
:10032C00EADEF3DE0FC020E6022FE5DEEEDE0AC0C9
:10033C002CE7022FE0DEE9DE05C02FE2022FDBDE28
:10034C00E4DE00C02F917F916F91089520E02093FF
:10035C000002882730E0309309020C94B5015FEE5F
:10036C0010E020E02093060200C0143021F05093DE
:10037C000B012FEF0CC020910602203021F020E061
:10038C0020930502ECCF21E020930502E8CF2A95BB
:10039C00F1F7209109012F702F3061F041E0002717
:1003AC0000C0043039F0322F342341F00395440F50
:1003BC000C94D701550F13950C94BB01E01741F425
:1003CC00D11731F40C94EA014CE3B0D00C94EE014B
:1003DC00E02FD12F133081F0033061F0402F440F08
:1003EC00400F410F439521E0209306022093090210
:1003FC000C9474020C943A0221E020930602003013
:10040C0041F0013049F0023051F0033071F00C949E
:10041C00930241E40C94740242E40C947402309103
:10042C000002313041F00C94B501309100023130B2
:10043C0061F00C94B5017E3124F07E5163950C94DF
:10044C0093023EE1730F0C9493027E3154F46030AE
:10045C0029F06A953EE1730F0C94930270E00C94B2
:10046C0093027E510C9493021030B9F01130A1F12B
:10047C00123081F520910002203021F0213041F022
:10048C000C94B50188274427662777270C947402AF
:10049C0052E0509300020C94B5012091000230916F
:1004AC0005023030B9F031E03093060230E0309381
:1004BC00050221E02093000220910A02203029F04D
:1004CC0020E020930A020C94B50121E020930A024B
:1004DC000C94B5010C94B50140E000C0222720918A
:1004EC0005022130D1F420E020930502839585305C
:1004FC00BCF4833011F0843059F07A3034F4620F4C
:10050C002AE0729F702D740F08C023957A50F5CF96
:10051C002AE0629F602D2227F0CFC4DE4CE300C09E
:10052C0012DE4A954030E1F70C94B5010CDE02DE88
:08053C004A954030D9F70895FB
:00000001FF
