:020000020000FC
:0C0000000C9430000C94E3000C94EE0013
:10005C000C9405012FEF2DBF21E22EBF20EF209332
:10006C000A0122E0209369002DB321602DBB28E00A
:10007C00209369002DB322602DBB20E220936900F0
:10008C002DB324602DBB2FEF2093070121B922271C
:10009C002093080122B908E35AD06BD088D008E32A
:1000AC0056D067D07BD008E352D063D008E34FD052
:1000BC0060D008E04CD05DD001E049D05AD006E0C9
:1000CC0046D057D00EE043D054D02FEF27B922277B
:1000DC0028B92FEF20BB222721BB20E12DB920E02E
:1000EC0020939A00222720939B0021E020939100DB
:1000FC0021E22093900020E024BD22E025BD21E0E8
:10010C0020936E0078948827EE27DD2766277727C3
:10011C00C0E0D2E000270993088349D121E0209365
:10012C00090221E020930A0220E020930B0220E038
:10013C0020930D02209301022093020220930302CC
:10014C002FEF28B924E620930C020C945302009351
:10015C00080124D0169A22D0169820D00895009326
:10016C000801179A1BD0169A19D0169817D0179801
:10017C0008950F9300270093070100930801159A27
:10018C000DD0169A0BD000910601169807FDF8CFEA
:10019C0015980FEF009307010F9108958F939F937C
:1001AC009FE08CE90197F1F79F918F910895F6DF0D
:1001BC00F5DFF4DFF3DFF2DF08952F932FB72F93E2
:1001CC0020E020930B02F3D02F912FBF2F91189585
:1001DC002F932FB72F9321E020930B022091000235
:1001EC00233039F0E4D00C94FB002F912FBF2F91CA
:1001FC00189520E020930002DAD00C94FB002F938A
:10020C003F938F939F93AF93BF932FB72F932091CF
:10021C000B02213009F1209100022130E9F4809188
:10022C0001029091020201968093010290930202C6
:10023C00A0910402B09105021196A0930402B09310
:10024C000502AA342CE4B20749F4AA27BB27A093D1
:10025C000402B093050236C00C94D40120910C0218
:10026C002436E1F0223341F0293179F0813A27E04C
:10027C009207C9F00C94590182342FE0920774F064
:10028C0020E020939A000C945901813A27E09207C0
:10029C002CF020E020939A000C9459012FEF20931E
:1002AC009A000C94590184382EE19207A9F68827FC
:1002BC00992780930102909302020C94850177D0C8
:1002CC000C94590120910902203009F00CC02091A6
:1002DC000A02243021F0239520930A02F0CF21E06A
:1002EC0020930A02ECCF20910A02213021F02A95AA
:1002FC0020930A02E4CF24E020930A02E0CF70306E
:10030C0019F07A9554D04AC0603021F06A957BE39D
:10031C004ED044C0209108022030D1F120E020932F
:10032C009A0023E02093000201E011DF22DF04E4B5
:10033C0016DF1FDF0FE613DF1CDF0EE610DF19DF01
:10034C0005E60DDF16DF00EC02DF13DF02E507DF49
:10035C0010DF05E604DF0DDF0DE601DF0ADF0FE637
:10036C00FEDE07DF06E7FBDE04DF05E6F8DE01DF75
:10037C0000E2F5DEFEDE06E6F2DEFBDE0FE6EFDE89
:10038C00F8DE0FE6ECDEF5DE04E6E9DEF2DE06C0B2
:10039C0021E0209308027BE30AD000C02F912FBFED
:1003AC00BF91AF919F918F913F912F9118956F9322
:1003BC007F932F9301E0CBDEDCDE222700C06A3076
:1003CC0074F4205D022FCBDED4DE605D062FC7DE19
:1003DC00D0DE2AE3022FC3DECCDE222703C0239516
:1003EC006A50EDCF7A3054F4205D022FB8DEC1DEB6
:1003FC00705D072FB4DEBDDE3AE003C023957A5062
:10040C00F1CF303029F000E2AADEB3DE3A95F9CF15
:10041C0020910A02213031F0223049F0233061F072
:10042C00243079F02DE2022F9ADEA3DE0FC020E6F5
:10043C00022F95DE9EDE0AC02CE7022F90DE99DE9D
:10044C0005C02FE2022F8BDE94DE00C000EC7FDEB5
:10045C0090DE3FE00C943202303029F000E27FDE77
:10046C0088DE3A95F9CF20910B02213021F0203013
:10047C0049F00C944F020FE472DE7BDE2FEF21BBB0
:10048C000C944F0203E46BDE74DE20E021BB0C9471
:10049C004F022F917F916F91089520E020930002DD
:1004AC00882730E0309308020C945C0220910B02F8
:1004BC002130E1F35FEE10E020E02093070200C052
:1004CC00143021F050930B012FEF0CC02091070238
:1004DC00203021F020E020930602E8CF21E0209389
:1004EC000602E4CF2A95F1F7209109012F702F30E5
:1004FC0061F041E0002700C0043039F0322F342382
:10050C0041F00395440F0C948202550F13950C94F3
:10051C006602E02FD12F1330B9F0033099F0402F41
:10052C00440F400F410F439521E020930702209187
:10053C000D02213029F021E0209308020C948F0346
:10054C000C94B0030C94310321E02093070200308B
:10055C0041F0013061F0023061F00330D1F00C94C5
:10056C00AE0320910002203021F50C94FC020C9477
:10057C00DF02209106022030E1F020E020930602F9
:10058C0021E020930702309100023130A1F00C944D
:10059C00DF0220910602203061F020E02093060259
:1005AC0021E02093070230910002313071F00C945D
:1005BC00DF020C946C027E3124F07E5163950C9416
:1005CC00AE033EE1730F0C94AE037E3154F46030F5
:1005DC0029F06A953EE1730F0C94AE0370E00C9415
:1005EC00AE037E510C94AE030C94AE0301E0AFDD70
:1005FC00C0DD03E5B4DDBDDD05E6B1DDBADD04E744
:10060C00AEDDB7DD00E2ABDDB4DD00E5A8DDB1DDCC
:10061C000FE6A5DDAEDD07E7A2DDABDD05E69FDD70
:10062C00A8DD02E79CDDA5DD00E299DDA2DD01E39A
:10063C0096DD9FDD0FE293DD9CDD02E390DD99DD1D
:10064C000FE28DDD96DD03E38ADD93DD21E020935F
:10065C000D020C94DF0220910602213029F621E0D4
:10066C0020930702103051F1113089F0123021F52E
:10067C0043E220910D02213061F0209100022130E3
:10068C00B1F0203041F0223031F00C94AE030C94D8
:10069C0088030C94B00320E02093000220E0209308
:1006AC00080288274427662777270C94AE0352E06C
:1006BC00509300020C94AE030C94AE034AE22091CA
:1006CC0000023091060250910D025130A1F03030F1
:1006DC0099F331E03093070230E03093060221E0C9
:1006EC002093000220910902203039F020E0209361
:1006FC0009020C945C020C94B00321E020930902D3
:10070C000C945C0240E020910D02213019F10C9404
:10071C008F032227209106022130D1F420E0209370
:10072C0006028395853044F6833011F0843059F0FD
:10073C007A3034F4620F2AE0729F702D740F08C067
:10074C0023957A50F5CF2AE0629F602D2227F0CFB7
:10075C002EDEACCE413041F0423089F04330D1F046
:10076C00433219F10C945C02442720E020930D02D3
:10077C0024E620930C022FEF28B90C94AE034427E7
:10078C0020E020930D0222E320930C022FE028B9E5
:10079C000C94AE03442720E020930D0229E1209312
:1007AC000C0223E028B90C94AE03442720E02093DC
:0C07BC000D0220E0209300020C94AE031C
:00000001FF
